:10000000805C0020C51D00006F570000B11D00007E
:10001000B11D0000B11D0000B11D00000000000076
:10002000000000000000000000000000A11E000011
:10003000B11D000000000000B11D0000B11D000056
:100040000D2000000D2000000D2000000D200000FC
:100050000D2000000D2000000D2000000D200000EC
:100060000D2000000D2000000D2000000D200000DC
:100070000D2000000D2000000D2000000D200000CC
:100080000D2000000D2000000D2000000D200000BC
:100090000D2000000D2000000D2000000D200000AC
:1000A0000D2000000D2000000D2000000D2000009C
:1000B0000D2000000D2000000D2000000D2000008C
:1000C0000D2000000D2000000D2000000D2000007C
:0C00D0000D2000000D2000000D2000009D
:1000DC0053B94AB9002908BF00281CBF4FF0FF31A3
:1000EC004FF0FF3000F00CB8ADF1080C6DE904CE08
:1000FC0000F008F8DDF804E0DDE9022304B07047F5
:10010C00704700BF2DE9F04786468C460846089E8E
:10011C00154674461946002B40F0C2808542B2FA4F
:10012C0082F245D94AB1C2F1200300FA02FC2EFA40
:10013C0003F3954043EA0C0C94404FEA154EA8B2D9
:10014C00BCFBFEF8230C0EFB18CC08FB00F943EAB1
:10015C000C43994528D9EB1808F1FF3704D299457F
:10016C0002D9A8F102072B44A3EB0903A4B2B3FBF9
:10017C00FEFC0EFB1C330CFB00F044EA0344A042D3
:10018C0014D92C190CF1FF3304D2A04202D9ACF1D2
:10019C0002032C44241A43EA07401EB1D440002326
:1001AC0034607360BDE8F0874746DDE76346F1E7EE
:1001BC0092BB431B01214FEA154EAFB2B3FBFEFCC1
:1001CC00200C0EFB1C330CFB07F840EA034398454C
:1001DC0062D9EB180CF1FF3004D2984502D9ACF17E
:1001EC0002002B44A3EB0803A4B2B3FBFEFC0EFBF2
:1001FC001C330CFB07F744EA0344A7424ED92C19D5
:10020C000CF1FF3304D2A74202D9ACF102032C4407
:10021C00E41B43EA0040C0E7C2F1200320FA03F1DB
:10022C00954090402EFA03F303434FEA154EAFB2BC
:10023C00B1FBFEFC0EFB1C10190C0CFB07F841EA81
:10024C000041884504FA02F422D969180CF1FF30F8
:10025C0004D2884502D9ACF102002944A1EB080173
:10026C009BB2B1FBFEFC0EFB1C110CFB07F743EA27
:10027C0001439F420ED9EB180CF1FF3104D29F427F
:10028C0002D9ACF102012B44DB1B41EA004192E79D
:10029C006046E3E76146F7E76046A3E76346B7E7E6
:1002AC00834206D916B9002108467BE7C6E900E06F
:1002BC00F9E7B3FA83F78FB9834201D3724508D8B3
:1002CC00BEEB020460EB030301209C461EB9002127
:1002DC0068E73846FAE7C6E9004CF8E7C7F1200CA6
:1002EC00BB4022FA0CF41C432EFA0CF120FA0CF34E
:1002FC00B84001434FEA14490EFA07F5B3FBF9F87D
:10030C001FFA84FE09FB18300B0C08FB0EFA43EAAB
:10031C0000439A4502FA07F240D9E31808F1FF307E
:10032C0004D29A4502D9A8F102002344A3EB0A0394
:10033C0089B2B3FBF9F809FB183308FB0EFE41EA4E
:10034C0003418E452CD9611808F1FF3304D28E4538
:10035C0002D9A8F10203214443EA0040A0FB029811
:10036C00A1EB0E014145CE46434602D306D14D4585
:10037C0004D2B9EB020E68EB04030138002EA6D0B0
:10038C00B5EB0E0261EB030101FA0CFC22FA07F348
:10039C004CEA0303F940C6E9003198E74046C5E74B
:1003AC004346D9E7F0B5284B284AC3F8002685B058
:1003BC00C3F80426C3F80826C3F80C26C3F8102685
:1003CC00C3F81426C3F81826C3F81C2600F06AF8E4
:1003DC0001A800F017FD1E4B1B68834204D01D487A
:1003EC00452105F038F9FEE74FF44041002005F0B7
:1003FC0019FC044620B11848452105F02CF9FEE7FC
:10040C0069469DF8080000F02BF8009B039D1D44E5
:10041C00019B1E8902F006FFAF1900F083FF00F06C
:10042C0057FF01F0F3FCAB5983F3088884F314886D
:10043C00BFF36F8FBFF36F8F7B68984707484521D9
:10044C0005F009F9FEE700BF000001403546526E89
:10045C0060010020C0760000E376000016770000F3
:10046C0008B5024638B105480023452105F0F3F8DC
:10047C006FF0150008BD0860FCE700BF397700007D
:10048C0021B1012906D06FF015007047044B53F8C9
:10049C0030007047024B03EBC0035868704700BF35
:1004AC00C873000002484FF4C05103F059BB00BFA1
:1004BC001C0F00202DE9F04FF9B0DDE98489DFF83D
:1004CC00E8A1869FDAF8005038A816461C4606F0BC
:1004DC00BEFC002138A803F079FCB8F1000F07D05E
:1004EC00B9F1000F04DD4A46414638A806F0B8FCC5
:1004FC0033897289D6F80CB013449B444FF0000832
:10050C00C3453AD80DA938A806F0E9FC27B120223A
:10051C000DA9384605F076F90023009322464FF6D4
:10052C00FF73314607A804F03BFD804610BB204604
:10053C000C9E00F0F1F986421CD8DFF870914FF058
:10054C00FF370DF1160305AA06A907A804F076FDDE
:10055C0000280FDB40F09F80069907A804F0BAFD35
:10056C0010BBBDF81600524A4FF6FF7132F8023B31
:10057C008B4217D1DAF8005091E0839B829AABEB57
:10058C000809994528BF99464B464146204605F037
:10059C0070F80028EED182994A4638A806F060FC23
:1005AC00C844ADE79842E1D1BDF81660102E17D1C2
:1005BC00BDF81460202EDDD10699334638AA2046AA
:1005CC0005F057F80028D5D1324638A90DA804F00B
:1005DC008FFD384B1B688342CCD14FF00108B0E73C
:1005EC00012E36D1BDF81430202BC3D8069938AA69
:1005FC00204605F03EF807460028BBD19DF814B004
:10060C00BBF1200F02D94FF0FF379AE7D9F8003031
:10061C00294E0393039B9F42F5DA1DA806F017FCA5
:10062C0000211DA803F0D2FB726856F8081B126853
:10063C001DA806F015FC15A91DA806F050FC5A467D
:10064C0038A915A805F0CEF800283FF47AAF013789
:10065C00E0E7202E7FF475AF7B1C3FF472AFD9F826
:10066C000030BB42CFDDBDF81430B3F5807F81D1B3
:10067C00069938AA204604F0FCFF00287FF47AAFD4
:10068C00FFB2BDF81430009738AA31460DA800F01F
:10069C0015F80546B7E7B8F1000F3FF46BAF2846E5
:1006AC0079B0BDE8F08F00BF04000020D0730000CB
:1006BC009476000060010020D47300002DE9F04F07
:1006CC00DFF8D4A1ADF5417D07462AA89DF828B3E3
:1006DC00DAF800501E468946904606F071FB092256
:1006EC0001212AA803F0EEFA6C4B53F83B40059419
:1006FC0003EBCB0380AA5B681B681C4421463023A8
:10070C0005A805F0B9FB002840F0BE80059B809A37
:10071C0013449C4240F0B8802CAA214605A805F051
:10072C00BFFB002840F0B0800DF1B80B5A462146B3
:10073C0005A805F0B5FB0390002840F0A5802CA877
:10074C0005F0CCFE059A2B90944240F09D80039BC3
:10075C00CDF804B000931A462CA92AA806F0EDFA9D
:10076C00002840F091802AA803F0C2FA002840F03B
:10077C008B802CA805F0B2FE2B902AA806F02AFB41
:10078C00864240F08180B6F5807FDAF800507BD14C
:10079C00B9F1200F78D180AA41462AA803F0CEFAED
:1007AC000446002870D19DF8FF32BC2B6CD106900A
:1007BC000DF59079DF260FA806F049FB00210FA854
:1007CC0003F004FB20220DF2DF210FA806F048FBFA
:1007DC00042206A90FA806F043FB07A90FA806F0F0
:1007EC007EFB202E9DF81B30B046A8BF4FF0200892
:1007FC0001334846424607A9A6EB08068DF81B3084
:10080C0005F000F8002EC144D5DC48AB80AA184690
:10081C0000219C46067812F801EB013186EA0E069F
:10082C00DF2900F8016BF5D11A7802F07F021A70FB
:10083C0013F8016B46BB0134BE2CF9D19CF8BE30C9
:10084C00012B21D10FA806F002FB31460FA803F0B3
:10085C00BDFA134908220FA806F002FB39462022E4
:10086C000FA806F0FDFA20220DF2DF110FA806F0FA
:10087C00F7FA07A90FA806F032FB20220DF2DF21B0
:10088C0007A804F035FC05462AA806F0A5FA284668
:10089C000DF5417DBDE8F08F04000020D4730000FD
:1008AC005F770000094A0B78400052F820108B4209
:1008BC0009D0013052F82000834214BF4FF0FF30B2
:1008CC004FF4C07070474FF4C0707047DC73000079
:1008DC001FB50F4B13F830000C4601F0AFF850B9B0
:1008EC002068816810236A46103904F0C2FE28B1D2
:1008FC00206804F0BDFE4FF0FF3006E005491022E1
:10090C00684604F06FFF0028F2D104B010BD00BFA0
:10091C00DC730000B076000013B5044604F0EFFB66
:10092C006A460146204604F022FB30B104484521BA
:10093C0004F091FE002002B010BD0098FBE700BF50
:10094C00677700002DE9F041364B88B00646002051
:10095C000D461C68FFF794FD06A9C0B201F06EF8B5
:10096C00002858D12946FFF78BFD2C2407A9C0B2CB
:10097C0004FB056401F062F8002833D02C276F4388
:10098C0006EB0708069BD8F8101011F0100138D1AF
:10099C004FF480720192244A0092CDE90311224651
:1009AC0002910846FFF786FD0446204BF259069843
:1009BC009A420CD1D8F80C20B8F808309B1806D203
:1009CC008268934203D21A4B1B68A34220D035B3E2
:1009DC008268002104F077FE164A1748452104F07E
:1009EC003AFE13E0079804F089FE0746079804F0D6
:1009FC003FFE631EE21C13F8011FB942BED19342A5
:100A0C00F9D11DB10699304604F063FC0B4B1C6800
:100A1C00069804F02DFE204608B0BDE8F081084A87
:100A2C00DBE700BF040000201C2700203DB8F39634
:100A3C0060010020AA770000B477000000000020BD
:100A4C00A27700007FB50D46044600212846CDE96B
:100A5C00021104F0FDFB28B32368194EB34203D1F5
:100A6C0003AA204604F089FBE36AB34204D102AA2C
:100A7C000121204604F081FBDDE90232934288BF5C
:100A8C000393039BAB60039A2946204600F030FB8E
:100A9C000C4B1A68002A03DD0B48572104F0DBFDD0
:100AAC0004B070BD01A9FFF713FF019805F108010F
:100ABC0004F030FBAB680198039304F0D9FDE2E736
:100ACC003DB8F396C40D0020DC7700002DE9F84FFB
:100ADC00DFF870B01C4C1D4D884691469A46002696
:100AEC000B9B9E4201D300200FE00B9B154A9F1BD2
:100AFC00B7F5806F28BF4FF480673B4606EB0A01C1
:100B0C00404604F0B6FD10B10120BDE8F88F0A99FB
:100B1C003B465A467118484604F0C0FD0028F3D1F4
:100B2C00C4F800563E44C4F80456C4F80856C4F839
:100B3C000C56C4F81056C4F81456C4F81856C4F819
:100B4C001C56CDE764090020000001403546526E6A
:100B5C00F0B5A24B43620E46A14B0365002189B050
:100B6C0004460846FFF78CFC04F120010546C0B290
:100B7C0000F064FF0346E8B90121FFF781FC04F1A2
:100B8C004C010546C0B200F059FF0346E0B92046BF
:100B9C0004F034FB0546C8B900221146204604F087
:100BAC00D6FA054648B38F480022572104F053FD6E
:100BBC00012399E00022CDE900238B4800232A462B
:100BCC00452104F048FDFEE70122F4E78748802226
:100BDC00572104F040FD01239D4284F85830DBD1AD
:100BEC0094F858308DF81730013B042B00F2AA8092
:100BFC00DFE803F0AC7D7D97B500204600F014FAD9
:100C0C000028D5D004A804F01AFB0146204604F0B5
:100C1C00B5FB18B176482A465721C7E704A804F05B
:100C2C0017FB80F0010104AAC9B2204604F08FFA28
:100C3C0002460028B7D104A804F00AFB054660BBA5
:100C4C0004A92046FFF7FEFE9DF8173084F85830B3
:100C5C00033B012B06D8284600F0FAF810B1FF230D
:100C6C0084F858309DF81730023B022B0BD800202B
:100C7C0000F0D8F838B1FF2384F858305D4845218E
:100C8C0004F0E9FCFEE794F85830FF2BF6D004AAE8
:100C9C000021204604F05BFA8AE79DF81770012FBB
:100CAC0017D1104602F04CFB831E022B05460DD8C3
:100CBC0039462046FFF746FE4F4B1B68984205D03D
:100CCC004E4B1D68A84214BF0525012584F85850C9
:100CDC0086E701212046FFF735FE474B1B689842FB
:100CEC000CBF9DF81730052384F8583078E794F83A
:100CFC004020237D9A4214D80AD394F84120637D76
:100D0C009A420ED804D3B4F84220E38A9A4208D20D
:100D1C00E06C0021826804F0D6FC012384F8583082
:100D2C0014E004A92046FFF78DFE94F85830DA1E23
:100D3C00012A09D8002000F08BF818B9002000F027
:100D4C0071F818B1FF23E9E7022BF7D094F858306B
:100D5C00FF2B08D12748452104F07DFCFEE700203D
:100D6C0000F076F8EDE70022012B254D039214D00C
:100D7C001146204604F0EBF978B12D6810220021C1
:100D8C000DEB020004F049FDE06C04F071FC206AEC
:100D9C0004F06EFC284609B0F0BD00212046FFF798
:100DAC00D1FD154F3B689842E7D12B689842E4D0AF
:100DBC00124B1B689842E0D0039B01330393039BB7
:100DCC00012B00D0FEE7206A04F0CFF83071236AC3
:100DDC005B6834603D68B360D0E700BF64050020F9
:100DEC00640100209A7800000B780000587800000D
:100DFC00C6780000F07800006001002000000020A0
:100E0C000400002038B5064D044660220021284617
:100E1C0004F003FD21462846FFF79AFE38BD00BFBB
:100E2C00640D002013B5094B01A913F8300000F034
:100E3C0005FE48B9019804F0E3FF0446019804F05C
:100E4C0017FC204602B010BD0124FAE7E473000041
:100E5C001FB50F4B01A913F8300000F0EFFDA8B936
:100E6C00019802A902F016FA044668B99DF80B30F5
:100E7C00032B03D1019804F091FF0446019804F070
:100E8C00F7FB204604B010BD0124F7E70124F8E776
:100E9C00E47300002DE9F34106460C4617461D4647
:100EAC000BB9002628E0184604F0D2F90028F8D136
:100EBC006946FFF70DFD009838B90124009804F03D
:100ECC00D7FB204602B0BDE8F08101A904F022F95D
:100EDC000028F2D1009804F0CBFB3046019904F0C5
:100EEC009AFA736A5E686B79012B21D1002CD8D1E8
:100EFC002B68834298BF002621460020FFF7C0FADA
:100F0C006946C0B200F09AFD0028D6D10098202383
:100F1C003A46314604F0ADFB04460028CDD1002DF5
:100F2C00CCD03C680D4BE41A18BF4FF0FF34C5E72A
:100F3C00022BB6D12B68012B05D98342B1D8B4FA58
:100F4C0084F46409ADE7ACD1002CD5D0012CA8D128
:100F5C002C79023C18BF0124A3E700BF3DB8F396DF
:100F6C002DE9F04F074685B00C4601460020164689
:100F7C00FFF798FC051E50DB3846E46D04F0BFF813
:100F8C005FFA84F96B1E09FB03084FF0000A4FF05F
:100F9C00010B4FF0FF349DB9BAF1010F03DD21486D
:100FAC00452104F058FB631C06D07F2C2ADC01344D
:100FBC0040F201133460B380284605B0BDE8F08FD1
:100FCC006B1E00930DF10F0201234146384604F0CD
:100FDC0050FB031E019322DB01220DF10F01384659
:100FEC0004F077FE019B40B15B4501D00AF1010A88
:100FFC00009DA8EB09089B46CDE7B4F1FF3F08BF65
:10100C002C46F5E70223803C7371631004F0010455
:10101C000133013433603471CEE70725CCE7012569
:10102C00CAE700BFFC78000070B5866A456D0446BF
:10103C0004F0E0F9AE420AD06B1CB34207D08342F5
:10104C0005D01448572104F006FB002070BD802EFB
:10105C001CD911485721F6E7626A216D02EBC302D5
:10106C0001EBC30152684968914202D00B485721E9
:10107C00E9E701339D42EFD1AE4205D9636A03EB38
:10108C00C5035B689342F1D10120DFE700231A46C8
:10109C00F0E700BF1F790000577900008679000047
:1010AC0073B54B681446114A03F0FF23934206466E
:1010BC000D4618D10B68012B15D16946204602F05C
:1010CC00E9F89DF80030032B0DD12146304604F091
:1010DC0000F9204604F062FEA968204604F028F8C6
:1010EC00204602F0B7F802B070BD00BF000100044A
:1010FC002DE9F04F0C4689B01146054604F08BF9EA
:10110C006B6A824620465E6804F0A2F8E8B1E86D8E
:10111C0003F0F0FFAF6A0023013F3344984201D93A
:10112C00013FFAE7BA4510D36648572104F093FA09
:10113C0007FB06F364480AFB0662572104F08BFA9E
:10114C000123E37109B0BDE8F08F06A9022000F07D
:10115C0075FC07A9052000F071FC079A214628466A
:10116C00FFF79EFF6379012B4BD1DFF860B1574637
:10117C0041E02268C2F1010353449F423AD86B6AA2
:10118C00196853F8370003EBC703012A53F8083CDE
:10119C00A3EB0103A0EB0109049311D1079B03936B
:1011AC00E368022B08D04146284604F092F8224608
:1011BC004146284604F0C3F80399284604F089F800
:1011CC0032464946404604F082F8049B424641466A
:1011DC00CDE900962846FFF779FC2146284604F015
:1011EC0044F823680133236020B1DBF8003001336D
:1011FC00CBF80030013FDDF81880002FB9D1012366
:10120C002360022363710127BA45DDF8189006D2DA
:10121C00484604F02DFA079804F02AFA92E723685E
:10122C009F424DD36A6ADDF81CB052F83710049116
:10123C00FB00083B11680391D1582A6DD0581368F4
:10124C00A0EB03082379012B38D1039B3246C91A32
:10125C004846059104F03BF80599009143464A46EF
:10126C00594601962846FFF731FC2146284603F0E3
:10127C00FCFF0223237118B1144A13680133136065
:10128C0032464146584604F022F8DDE9032349462C
:10129C009B1ACDE900865A462846FFF717FC2146D3
:1012AC00284603F0E2FF23680133236001232371F6
:1012BC0030B1064A13680133136001E0022BDFD012
:1012CC000137A1E7B2790000E1790000C40D0020DC
:1012DC00BFF36F8F72B6124B4FF0FF32C3F8802002
:1012EC00C3F88420C3F88820C3F88C20C3F890205E
:1012FC00C3F89420C3F89820C3F89C20C3F880212D
:10130C00C3F88421C3F88821C3F88C21C3F8902139
:10131C00C3F89421C3F89821C3F89C21704700BFEF
:10132C0000E100E01A4B70B54FF0FF3401265E600F
:10133C00C3F84843C3F8084303F5C043154D5E603A
:10134C00C3F84843C3F8084303F5983302205E60A2
:10135C00C3F84843C3F80843C5F8084300F0B8FD88
:10136C0000236E60C5F84C31D5F84C21C5F810310E
:10137C00D5F81021C5F84431D5F84421C5F800350D
:10138C00054BC3F808454FF08043C3F8084370BDC4
:10139C0000B000400020004000F00140014B1B68F1
:1013AC00184700BF0800002007B50B460021024675
:1013BC000091034800F00CF803B05DF804FB00BF8B
:1013CC00A9130000014B1860704700BF08000020F3
:1013DC002DE9F04F8DB01D46531E824601910393AB
:1013EC004FF00009039B5878252803F1010419D10B
:1013FC001E4600204FF0FF3802360346029044464A
:10140C0031780396392954D81F2914D8002900F0B3
:10141C00EE8101992520D04701993078D04709F108
:10142C000209DFE7002800F0E2810199D04709F1B9
:10143C0001090394D6E7A1F12002192AE9D801A7E2
:10144C0057F822F0B91400001F1400001F140000FC
:10145C00B91400001F140000391500001F140000FF
:10146C001F1400001F1400001F140000851500003D
:10147C00B91400001F140000991500004515000058
:10148C001F140000531500007315000073150000A5
:10149C007315000073150000731500007315000020
:1014AC007315000073150000731500000846013613
:1014BC00A6E7582900F0EB80A1F16302D7B2172FF1
:1014CC00A7D8172AA5D801A757F822F04117000072
:1014DC00BF1500001F1400001F1400001F14000093
:1014EC009F150000BF1500001F1400001F14000002
:1014FC009F1500001F1400001F1400001F14000093
:10150C00751600001F1400001F14000015170000B2
:10151C001F140000BF1500001F1400001F14000052
:10152C00751600001F1400009F150000019925205E
:10153C00D04709F1010955E7029A02F0FE02029226
:10154C004FF00008B3E7002C0DDAB8F1000F0DDAFC
:10155C00029A002A00F0438124EAE4740A2202FB76
:10156C000414303CA3E7B8F1000FF5DB0A2202FBB0
:10157C000812A2F130089AE7B8F1000F55F8042BC5
:10158C0080F22F81002A80F22E8154420222029294
:10159C008DE7682903D1682B06D1482387E76C298E
:1015AC0002D16C2B00F02181002B7FF432AF0B4663
:1015BC007DE77A2B06D1752955F8046B14D14FF0C1
:1015CC00000B0CE06C2BF6D04C2BF4D1073525F02E
:1015DC0007037529D3E9006B03F1080506D1202810
:1015EC003BD1854F013C09E04FEAE67BBBF1000F94
:1015FC00F5DA7642814F6BEB4B0B013C0DF12D0371
:10160C00059300230493304659460A220023FEF723
:10161C005FFD059B303203F8012DB4460593049B06
:10162C005A46BCF10A0F8B4672F1000203F1FF31EE
:10163C0006460491E7D2C3F1010B30330DEB0306E0
:10164C00B8F1000FA6F104066DDA029BD9077DD420
:10165C00A8EB0B03A4EB0B0413E02B280ABF684F79
:10166C00684F04F1FF34C9E770290FD155F8042BEA
:10167C000023FAB9634F644E053C6FF004034FF03E
:10168C00050B029A920770D4A04666E078216C2B69
:10169C0003D155F8042B002308E04C2BF9D1073566
:1016AC0025F007031D465B6855F8082B232825D128
:1016BC00880621D5554F023C01F06001A1F1390B90
:1016CC000DF12D0E002602F00F01092988BF594497
:1016DC0030310EF8011D102A4FEA121141EA037144
:1016EC004FEA131C73F1000306F1FF3008D2C6F168
:1016FC00010B06F13003A1E7454FDCE7414FDBE777
:10170C0006460A466346DEE755F8046B304604F09D
:10171C0062F8B8F1000F834602DB4045A8BFC34610
:10172C00384F4FF00008A8EB0B03002B92DDA4EB15
:10173C000804A6E755F8043B8DF81830314F013CEE
:10174C004FF0FF334FF0010B06AE9AE7A046EAE7E5
:10175C00029301992020D047029BB8F10108F7D5DC
:10176C0024EAE472013C9144A41AB84606E00493BE
:10177C0002920199D047029A049B9046424612F875
:10178C00010B0028F3D11A46013A15D5002BACBF3A
:10179C00C7EB03077F425B46013B15D5BBF1000F3E
:1017AC00A8BF5F444F442646013E14D5002CA8BF69
:1017BC003F1907EB080915E60493029201993020B2
:1017CC00D047049B029ADFE70293019916F8010BAC
:1017DC00D047029BE0E701992020D047E4E70122A3
:1017EC00D5E6904663E6144661E64C235FE6484630
:1017FC000DB0BDE8F08F00BF227B0000207B000005
:10180C00247B0000FB7800002C7B0000267B000072
:10181C00297B00002DE9F047058B044628079046EC
:10182C0011D4022905F0070540F0CC80204603F0C6
:10183C003AFE78B10138218B042811D8DFE800F08A
:10184C00C2106D85950001290CBF45F0100545F0BF
:10185C002005258388F31188BFF36F8FBDE8F087CF
:10186C0001F0070AAA4500F0A5800027B9463E46BC
:10187C00A368002B00F0BC8041F00801218388F3A1
:10188C001188BFF36F8FA168002900F0BA800D6832
:10189C00002900F0B680D1F8048033465246204629
:1018AC00C047002D76D02B6829461D46F0E701F085
:1018BC0007035A1F012A1BD8002221F00701062B0F
:1018CC00276889B2C4E9002209D13B4603E0628B48
:1018DC00013262831B68002BF9D141F00201218394
:1018EC00204603F0E0FD00287AD041F0200176E09C
:1018FC00042B0AD121F0070189B22183204603F081
:10190C00D2FD10B141F020012183218B01F0070A97
:10191C00AA454FD00027B946AAE7236921F0070151
:10192C0041F00601062DD3F8009021832DD1B9F199
:10193C00000F3FD041F00801218388F31188BFF3D9
:10194C006F8F3A492046C84729E021F007012369E7
:10195C0041F0040189B2042DD3F804902183E6D020
:10196C0000273E464FF0040A82E721F00701236965
:10197C0041F0050189B2052DD3F808902183D6D00A
:10198C0000273E464FF0050A72E700273E464FF00F
:10199C00060A6DE72B4687E7B9F1000FD1D1EFF3BB
:1019AC001188202383F31288BFF36F8F238B23F0CE
:1019BC0008032383258BEA062ED525F010032383F9
:1019CC0005F007056669218B002EBFF670AF00236A
:1019DC002768C4E9003321F0070141F0010121839C
:1019EC00218B01F0070AAA454FF000097FF440AFA4
:1019FC00002F9CD041F00801218388F31188BFF39C
:101A0C006F8F002FC8D03D6839463346524620466A
:101A1C0003F075FD2F46F4E7AB067FF51BAF25F001
:101A2C002003238305F0070500E700BF37550000AE
:101A3C00014B036000207047F073000070B5114B30
:101A4C001C680D46DCB1104B196800238B4202DB7D
:101A5C006FF0010070BD224612F8106B864202D066
:101A6C0001331446F2E7E06810B96FF01200F1E7A9
:101A7C0005F064FB0028F8D02C600020EAE76FF03A
:101A8C000C00E7E70C000020F073000070B588B084
:101A9C0005460C46C0B269461646FFF7CFFF002834
:101AAC001BDB0098C8B143680293836822680195D8
:101ABC00CDE903360023CDE906230593C56803F071
:101ACC00D7FD6DB12846084901AA03F0A9FF079874
:101ADC0008B9059B236008B070BD6FF01500FAE7DC
:101AEC006FF01200F7E700BF1757000008B5054864
:101AFC0003F0CCFC044803F0C9FCBDE808400348E3
:101B0C0003F0C4BC327B0000637B0000967B0000BA
:101B1C0030BFFFF7FDBF00BF70B5264B15469A6A64
:101B2C0012F0100F9A6A14BF1124102412F0080F2F
:101B3C009A6A18BF1224920706460AD5586B9A6AFD
:101B4C00140634D519B19A6A22F080029A621324D1
:101B5C0001E06FF01500174B9A6A12F0010F9A6AA8
:101B6C0018BF142412F0200F9A6A18BF1524D2063D
:101B7C0002D49B6A9B070AD50E4B5B68190506D5E8
:101B8C00314600F0FBF910B180F309880224094BAF
:101B9C009A6A920642BF5A6A22F400525A629A6AB0
:101BAC0042F0FF029A6200232B70204670BD6FF04A
:101BBC001500CCE700ED00E0134B9A6A12F0007FA1
:101BCC009A6A14BF1E201D2012F0807F9A6A18BFDB
:101BDC001F2012F4002F9A6A18BF212012F4802FB4
:101BEC009A6A18BF222012F4003F9A6A18BF232069
:101BFC0012F4803F9A6A6FEA02426FEA12429A62CA
:101C0C0018BF2420704700BF00ED00E010B5194B41
:101C1C000246986A9C6A10F4805F14BF1720162045
:101C2C0014F4006F9C6A18BF1820A40509D5986B92
:101C3C00986A000404D51AB19A6A22F400429A6296
:101C4C0019200C4B9A6A12F4806F9A6A18BF1A20EA
:101C5C00D2050CD49B6A13F4005F18BF1C20054AF4
:101C6C00936A43F47F43936200230B7010BD1B20D7
:101C7C00F5E700BF00ED00E070B5454B5B688AB03E
:101C8C000546C3F30803002686F31188BFF36F8F54
:101C9C0002F07F40B0F17F4F11D102F00C00082808
:101CAC000DD010074CBF0D4601260022033B8DF8CA
:101CBC000720032B05D8DFE803F01E5D615A35467B
:101CCC00F3E700249DF807309BB92022294602A88F
:101CDC0003F098FD099B002E54D0C3F3080222B9DF
:101CEC006FEA53236FEA4323099302A9204603F0BA
:101CFC002EFD0AB070BD264BDA6A9107E1D4DA6A80
:101D0C00002ADEDBDA6A5200DBD55A69A96942F493
:101D1C0080725A61BFF34F8FBFF36F8F5A6931F8DE
:101D2C00021C22F480725A61BFF34F8FBFF36F8F86
:101D3C004DF6027291420AD09A6AD2B24AB10DF1B2
:101D4C00070201212846FFF7E7FE0446BAE72C6894
:101D5C00B8E79A6A12F47F4F05D00DF10701012004
:101D6C00FFF754FFF1E79B6AB3F5803FA9D3FFF768
:101D7C0023FFEAE70DF107020021E3E70DF107016C
:101D8C000020EDE723F4FF7323F00103ACE700BF61
:101D9C0000ED00E0024A536943F0100353617047B1
:101DAC0000ED00E0EFF30880EFF3098101B5724616
:101DBC00FFF762FF01BD00BF002080F31488BFF362
:101DCC006F8F02F01BF900200D490860BFF34F8F95
:101DDC000C4880F3088800F02BF8202080F3118841
:101DEC0009484FF40461401880F30988EFF314801C
:101DFC000221084380F31488BFF36F8F00F0A2F820
:101E0C0094ED00E0805C0020402C00200749D1F8C4
:101E1C0090200023C2F307221846934200DB704740
:101E2C00C1F89830C1F8A0000133F6E700ED00E0EE
:101E3C0008B572B6002383F31388FFF7E7FF144B42
:101E4C004FF0FF32C3F88020C3F88420C3F88820F9
:101E5C00C3F88C20C3F89020C3F89420C3F89820C2
:101E6C00C3F89C20C3F88021C3F88421C3F88821CF
:101E7C00C3F88C21C3F89021C3F89421C3F898219E
:101E8C00C3F89C2162B6BFF34F8FBFF36F8F08BDB1
:101E9C0000E100E01EF0040F0CBFEFF30880EFF33D
:101EAC000980816911F8021C0229FFD001B503F0E9
:101EBC0054FC01BD40B2002807DB044A4109012350
:101ECC0000F01F00834042F82130704700E100E031
:101EDC0040B200280CDB4309064900F01F002033F8
:101EEC000122824041F82320BFF34F8FBFF36F8F45
:101EFC00704700BF00E100E0054B420900F01F00F5
:101F0C0053F82220012303FA00F01040704700BF61
:101F1C0000E100E040B20028A8BF00F1604001F1F0
:101F2C000101B8BF064B4FEA4111ACBF00F561404F
:101F3C0000F00F00C9B2B4BF195480F800137047F9
:101F4C0014ED00E00B4A08B50B4B22F07F029A60AF
:101F5C00BFF34F8FBFF36F8FD3F8882022F470023A
:101F6C00C3F8882002F0F2FE02F038FF00F03CF8D3
:101F7C0002F0F8FE0000000000ED00E010F1160F7A
:101F8C00074B08D0984208D34033834205D98B4283
:101F9C0003D9044870474033F9E70020704700BF6D
:101FAC0080340020C034002080B584460C46154691
:101FBC001E46074F87F309884FF0000005498847F4
:101FCC00204629463246E04703488047FEE700BFDB
:101FDC00C05C00208757000095570000014B102271
:101FEC001A61704700ED00E0044800232021C2185C
:101FFC000133272B82F80013F9D1704700E100E080
:10200C0008B5EFF30583064A103B02EBC30152F807
:10201C00330049688847BDE8084003F0A9BB00BFFE
:10202C0078720000024B034A0348022100F066B8A4
:10203C00000001200000002064740000084AC2F86F
:10204C0098000B6823F01F03034343F01003C2F8FE
:10205C009C308B6843F00103C2F8A030704700BF7E
:10206C0000ED00E02DE9F043DFF8608085B00E460E
:10207C001F4604464FF00009B14523DA6068D8B119
:10208C003FB1411E08421BD11F2819D923681942A0
:10209C0016D12368019303F08EFBA36803430393CB
:1020AC00D8F89050C5F30725D0B2013DA84207D807
:1020BC0001A9FFF7C3FF421C09F101090C34DBE74E
:1020CC006FF01502104605B0BDE8F08300ED00E09E
:1020DC00044B0522C3F89420BFF34F8FBFF36F8FCF
:1020EC00704700BF00ED00E0BFF35F8F024B002292
:1020FC00C3F89420704700BF00ED00E010B5034C0E
:10210C0001232278FFF7AEFF207010BD1C280020A1
:10211C002DE9F043534B544CD3F890302568C3F35E
:10212C0007239D4285B000F29A80FFF7DDFF002067
:10213C000C2685421AD14D4C4D4F25706846FFF741
:10214C0077FCDFF82081DFF82C9106460025AE42A3
:10215C0013D1237843490020D1F89020C2F30722F1
:10216C00934276DBFFF7B4FF002042E0616806FB88
:10217C000011FFF763FF0130DBE7009800EB05115E
:10218C004FEA051CCB683B40B3F5000F48D00AD88A
:10219C00B3F5001F30D0B3F5800F36D0B3F5801FE8
:1021AC0010D00135D3E7B3F1807F42D0B3F1007F7B
:1021BC00F7D150F80C3088684A6803F0FCFA40F408
:1021CC00802009E050F80C3088684A6803F0F3FA74
:1021DC0040F0885040F43020CDE901230390D8F82A
:1021EC0090302078C3F30723013B98422AD96FF033
:1021FC00150005B0BDE8F08350F80C3088684A68CB
:10220C0003F0D9FA40EA0900E6E750F80C30886888
:10221C004A6803F0D0FA40F0007040F40030DBE77D
:10222C0050F80C3088684A6803F0C5FA40F08270A8
:10223C00D2E750F80C3088684A6803F0BCFA40F0DA
:10224C008870C9E701A9FFF7F9FE237801332370E1
:10225C00A7E7C1F89830C1F8A00001337CE74FF034
:10226C00FF30C6E700ED00E07C7400001C28002065
:10227C000000F0FF00000811014B1860704700BF10
:10228C0010000020044A0123C2F840354FF0804270
:10229C000020C2F87835704700E0014020B1034BB4
:1022AC00800143F001031847704700BFC073000062
:1022BC00084B70B5C31A0D4607499B100446594389
:1022CC000648402203F0BEFA2B4601462046BDE8E4
:1022DC0070401847DC0D0020B76DDBB6287200008B
:1022EC0073B50C4C0C4A4023041B00930D460B4653
:1022FC000A49A41061430646094803F0CEFA011EB0
:10230C0005DA30462B4602B0BDE87040184702B0E3
:10231C0070BD00BFDC0D002015590000B76DDBB699
:10232C0028720000002270B5012104461046FFF708
:10233C00F1FD0F4802F04AF80E4B984215D102F00D
:10234C0055F826690C49304603F0FCF800280BDBE5
:10235C00012535642469084904F11C0003F0F2F8E6
:10236C00002801DBE564002070BD6FF00400FBE782
:10237C00A52400000000AD0B9C74000010B5074CA8
:10238C0023782BB94FF4A57004F0D3FE01232370EE
:10239C00BDE81040002002F03BB800BF1D28002013
:1023AC0010B5EFF31184202383F31288BFF36F8FE2
:1023BC00074A136823F00201DB07116002D40120E5
:1023CC0004F02CFE84F31188BFF36F8F10BD00BF97
:1023DC002C0E002030B4104B0C2202FB00330146B3
:1023EC000020D3E90E529863EFF31180202484F37C
:1023FC001288BFF36F8F1C6C04F0C00444F002040D
:10240C001C6480F31188BFF36F8F1DB12B460348FA
:10241C0030BC184730BC7047DC0D0020287200001F
:10242C0010B4EFF31182202383F31288BFF36F8F64
:10243C001748016841F002040460C80707D482F30E
:10244C001188BFF36F8F012010BC01F0E1BF4FF07A
:10245C008041D1F80C04D1F80C14C907EFD5EFF377
:10246C00118083F31288BFF36F8F0A490B6C03F052
:10247C00C00343F002030B6480F31188BFF36F8F2A
:10248C0082F31188BFF36F8F002010BCFFF7A2BF3F
:10249C002C0E0020DC0D002010B1012804D0704758
:1024AC00034B1B6C5B0701D1FFF794BF704700BF58
:1024BC00DC0D00202DE9F8433649BFF35B8F07464E
:1024CC00012251E8003F41E800200028F9D1BFF378
:1024DC005B8F33B9304931484B60CB608A6003F075
:1024EC0044F87B1E012B2DD8012F07D14FF08043D0
:1024FC00D3F81C3403F00303012B23D004F05FFE4C
:10250C00054608BB264B1B78F3B14FF080430222E3
:10251C00C3F808230646DFF88C904FF080444FF048
:10252C000108D4F81824D4F81834D20315D503F0C4
:10253C000303012B01D0012F0FD125B386F3118892
:10254C00BFF36F8FBDE8F883EFF31186202383F37D
:10255C001288BFF36F8F0125DDE7304603F01CF9BD
:10256C00D4F81835002BDCD1D4F80421002AD8D0AB
:10257C00C4F80431D4F80431C4F81885C9F8808142
:10258C00C4F80880CDE74FF080430222C3F804233F
:10259C00D8E700BFD80D0020C80D0020F80D002092
:1025AC00302C002000E100E008B5074804F0C6FD1F
:1025BC0038B10648FFF760FE0448FEF703FF002021
:1025CC0008BD6FF01200FBE750720000DD25000023
:1025DC000A2838B5074D044604D1AB680D215B6859
:1025EC0028469847AB6803485B68E1B29847204699
:1025FC0038BD00BF50720000024B0B60012313600A
:10260C00704700BF300E002000487047F074000087
:10261C0010B504F083FD034C206004F07BFD60607A
:10262C00002010BD300E0020F8B50E46304619467D
:10263C0017461D4603F074F9B8B146EA050414F0C8
:10264C00030412D14DB12B19032BA6EB040006D8B1
:10265C00074AD2F80034DB07FBD50020F8BD3B1B42
:10266C00043C196802F0FCFAEDE76FF01500F5E791
:10267C0000E0014038B545682B69B3B110352846E8
:10268C0002F0B2F9044680B90146284602F078F906
:10269C00084B98420BD108492246284602F058F9BB
:1026AC00224605210620FFF735FC002038BD6FF0CF
:1026BC000400FBE70000AD0BC9260000430970B510
:1026CC0007D10B4B596821B101250C68094E854087
:1026DC0001B970BD8A682A4002D04B6830469847D1
:1026EC001CB1236821461C46F2E72346FAE700BFDB
:1026FC00380E00203C7200002DE9F043476840F290
:10270C000636D0063B7B87B002EA060654BFC2F3FE
:10271C004010032001F01F05B6F5837F144645EAEF
:10272C0043158DF8030042D00FD8062E18D007D8C9
:10273C00B6B1022E3DD06FF0150007B0BDE8F083A6
:10274C00B6F5807FF7D101260AE040F202229642CC
:10275C0031D0B6F5407F30D0B6F5007FEBD10226F4
:10276C0022032CD57A6801238B40C2F808353B69CB
:10277C006BBB05F01F026D0976D1920002F1A042ED
:10278C0084F48031D2F80037C1F30041C4F34044E3
:10279C0023F4E16344EA410423F007031C4344EAB5
:1027AC00800444EA0624C2F800470020C5E7072647
:1027BC00D6E70426D4E70526D2E70326D0E7630341
:1027CC0041BF01237A688B40C2F80C35CFE7103734
:1027DC000DF102022946384602F0C0F814F4403FCD
:1027EC0080460CD12946384604F08AFC214B98458A
:1027FC00DBD19DF80210384602F000F9D5E701ABA9
:10280C004FF0000903AA29463846CDE90439CDE931
:10281C000199CDF80C9001F075FF164B98428AD1B6
:10282C0014F4003315D09DF803308DF80E3084F479
:10283C008034C4F300444B4603AA294638468DF82D
:10284C000C608DF80D4002F00DF80A4B9842CDD07B
:10285C0071E7CDE9043303AA0DF103032946384689
:10286C00039301F04FFFF0E702F5E07253F82230CA
:10287C00FFDE00BF0000AD0BF0B54068057B01F03A
:10288C001F0444EA4514056987B0002D60D0B2F5E9
:10289C00001F00F1100506D12146284604F032FC39
:1028AC00002007B0F0BD01AE0027B2F5800F0197F4
:1028BC00776038D1B3F1007F14BF052304238DF862
:1028CC0004300023CDE904630393836823FA01F1F8
:1028DC0011F0010119D1B2F1A07F16D104F01F0340
:1028EC00620903F5E07339D14FF0A04252F823305E
:1028FC00DB070AD40DF1030632462146284602F0C6
:10290C002DF8184B984219D0029603AA2146284656
:10291C0001F0F8FE144B98421DD1012221462846A5
:10292C0002F078F8BCE7B3F1C06F05D0B3F1007FCB
:10293C0014BF01230223C2E70323C0E73146284614
:10294C0002F062F8084B9842DED06FF00B00A8E75B
:10295C006FF08500A5E76FF01500A2E751F8233062
:10296C00FFDE00BF0400AD0B0000AD0B2DE9F04302
:10297C005B4E5C4F00EB810140F2FF15814202D1AE
:10298C000020BDE8F083046814F4804FC4F3C32C1A
:10299C00C4F3080340F09080640C16F80CC0AB42F2
:1029AC0008BF4FF0FF33192C00F28980DFE804F0E8
:1029BC000D13191C1F251C8787878736638787870C
:1029CC00878787878787667B7E81C2F80C355C1C7E
:1029DC005ED10430D2E7C2F814355C1CF9D0002467
:1029EC005FE0C2F80835F2E7C2F81035F5E75C1C79
:1029FC00C2F80835EDD0002404E05C1CC2F80C359C
:102A0C00E7D001245FEA531E5CD14FF001084FF070
:102A1C00A04E08FA03F9CEF80C950AE0C2F8083576
:102A2C00BCF1000FD9D15C1CD3D00024A0464FF0D0
:102A3C00060CD0F8009009F4004EBEF1000F1CBF3C
:102A4C004FF00008012403F01F0E5B0942D14FEA3E
:102A5C008E0E0EF1A04EC9F34129DEF800373B4033
:102A6C0043EA890343EA0C2343EA080343EA440399
:102A7C00CEF80037ADE7C2F80C35D1E7C2F86035B7
:102A8C00B3F1FF3F0468A4D0C4F30044002CB8D0C9
:102A9C005C091BD101244FF0A04E04FA03F8CEF8C8
:102AAC000885A046C5E7C2F86435E9E7C2F8683581
:102ABC00E6E7C2F86C35E3E76FF0150061E76FF0FD
:102ACC0085005EE70023C3F80C35FFDE0023C3F856
:102ADC000835FAE70EF5E07E002353F82E30F4E7C4
:102AEC00167C0000F0F8FCFF2DE9F0410446076964
:102AFC000D4604F064FB4FF0200890B92A4B1B786C
:102B0C007BB16426606803F03AF8D0B9012004F078
:102B1C0079FA013EF6D1F4E786F31188BFF36F8F93
:102B2C00EFE7EFF31186314688F31288BFF36F8F0E
:102B3C00606803F024F880B986F31188BFF36F8FB7
:102B4C00EFE7EFF31186314688F31288BFF36F8FEE
:102B5C00606803F014F80028DED03B691D706268D1
:102B6C0038691368C3F844050120C3F848050020F0
:102B7C00C3F82001D3F82051C3F858015268D3F898
:102B8C005801D20608D5626812680820C2F8000500
:102B9C004FF48002C3F8042301229A6081F3118858
:102BAC00BFF36F8FBDE8F081302C00202DE9F3418D
:102BBC000022064601210220FFF7ACF90220FFF7A4
:102BCC0079F9776835693C680021C4F800152E60E6
:102BDC00D7F80C8001AA404602F0A3FF0028C0F2EF
:102BEC00CC80019BD8F8002019791868FFF7BEFE3D
:102BFC000028C0F2C2806B7A012B26D1AB7A032B52
:102C0C0023D1E87A08B101281FD12A7A12B1022AFD
:102C1C001BD10E226B687168B3F5164FD1F800C04A
:102C2C0000F0AE8032D8B3F5165F00F0AC8018D847
:102C3C00B3F5966F00F0A9800AD8B3F5967F00F033
:102C4C00A780B3F5167F00F0A6806FF0850094E0A6
:102C5C00B3F5166F00F0A280B3F5965FF5D15B4B20
:102C6C0041E0B3F5E14F00F09C8008D8B3F5615F0B
:102C7C0000F09980B3F5964FE7D1554B33E047F60A
:102C8C0012218B42E1D14FF400032CE0B3F5613FEC
:102C9C0000F08B8015D8B3F5963F00F089800AD8E8
:102CAC004DF6C0218B4200F08580B3F5614FCCD13D
:102CBC004FF46B0317E0B3F5E13FC6D14FF0EB7364
:102CCC0011E0B3F5612F78D008D842498B4277D008
:102CDC00B3F5E12FB9D14FF0E86304E03E498B42E4
:102CEC00B3D14FF080533169CCF8243573681B682D
:102CFC000243C3F86C250B1DD5E9010183E80300E1
:102D0C007B68990712D505F1180001F0B7FF334B1A
:102D1C00984258D1287E04F10C0204F5907104F00D
:102D2C0073F92B7E0120984001F0E8FA0823C4F8CF
:102D3C0000353B7A53B9C4F81031D4F810316B69B3
:102D4C00C4F834350123C4F8383523607B689A07FE
:102D5C005CBF4FF48073C4F804337B68DB0644BF5C
:102D6C004FF48003C4F804332B69C4F844350020B5
:102D7C000123C4F84805A360E36002B0BDE8F0810C
:102D8C004FF41D03AFE7164BADE74FF49E23AAE7B4
:102D9C004FF4A033A7E74FF41C33A4E74FF41D23E3
:102DAC00A1E7104B9FE7104B9DE74FF06C739AE730
:102DBC000E4B98E74FF4650395E74FF0706392E77D
:102DCC004FF080638FE76FF00400D6E700B013007C
:102DDC0000A04E0090D0030040420F000000AD0B4D
:102DEC000050270000C0750000F03A0000903A0136
:102DFC0070B5012383400E4ABFF35B8FDC4352E86E
:102E0C00001F01EA040542E80056002EF7D1BFF37B
:102E1C005B8F4FF4803282400648C0F80823BFF322
:102E2C005F8FBFF36F8F0B4214BF0120002070BD6A
:102E3C00480E00200010014070B40E49D1E9003456
:102E4C00D01AC31844F1000422F07F46C1E90034C3
:102E5C00A6F50013B3F5400F09D2074B1B681A0AED
:102E6C001B069C19054B42F10005C3E9004570BCDB
:102E7C0002F014B8C80000204C0E0020D000002036
:102E8C0011B3BFF35B8F0123104A834052E800CF8C
:102E9C004CEA030C42E800C10029F7D1BFF35B8F69
:102EAC000B4A4FF480338340C2F80433094BBFF311
:102EBC005B8F1B68BFF35B8FC340DB0742BF064BC6
:102ECC004FF40032C3F80021704700BF480E0020B9
:102EDC0000100140440E002000E100E00D4B18688A
:102EEC00010A0006BFF35F8F0B4BD3F8043518189B
:102EFC0041F10001B3F5801F0AD2084BD3E900233E
:102F0C00904271EB030303D210F1807041F1000188
:102F1C00704700BF4C0E002000100140D000002074
:102F2C002DE9F04F85B016461F469DF840A004468B
:102F3C00FFF75EFF0190FFF7D1FFB04271EB070383
:102F4C0054D23E4B301A67EB0101984271F10001EB
:102F5C004FD23B4B03EB0413D3E902239F4208BF30
:102F6C0096425ED037494FF4803804F1500508FA88
:102F7C0004F8AD00C1F848832046ADB202F046FE1D
:102F8C0026F07F4B05F1804504F5A87305F58835CF
:102F9C00DC464FF003090293029A2CF07F4341F870
:102FAC002230C1F84483D1F80435274A6FF002006F
:102FBC00C01A604420F07F40904232D9286868B132
:102FCC00D1F804350393A3EB0B0020F07F40B0F550
:102FDC00000F26D9204602F019FE039BBAF1000F10
:102FEC0007D109EB030C09F10109D5E7BAF1000F80
:102FFC0009D06FF0150520460199FFF741FF2846CF
:10300C0005B0BDE8F08F0123104ABFF35B8FA340DE
:10301C0052E8000F184342E800010029F8D1BFF331
:10302C005B8F07490E98230101EB0412C8500F9BCC
:10303C005360C2E902670025DDE700BF0100800094
:10304C00B800002000100140FDFF7F00440E00205E
:10305C007FB51C4C1C4BC4F80833C4F848331B4BCD
:10306C0000254FF0FF304FF0FF31C4F80855C3E98D
:10307C0002014FF48033C4F80433154B02264FF48D
:10308C0000320121C4F804631120C3F880212A46C0
:10309C00FEF740FF1120FEF70DFF0E4A0123A3603F
:1030AC00236013600C4B0D4A0093CDE901550023AE
:1030BC002846FFF735FF3046FFF7FCF9284604B0E9
:1030CC0070BD00BF0010014003000F00B8000020CD
:1030DC0000E100E0480E0020452E0000FFFF7F00BD
:1030EC002DE9F7432F4CD4F8043399070BD5D4F8BA
:1030FC00043143B12C4A0023C4F80431D4F8043110
:10310C00136801331360D4F80433DA0329D5BFF301
:10311C005B8F264B53E8002F22F0010143E800108F
:10312C000028F7D1BFF35B8FD30702D4D4F840311A
:10313C00BBB10025C4F84051D4F84031FFF7CEFEA6
:10314C00EFF31182202383F31288BFF36F8F184B98
:10315C00D3E90267B042B94106D282F31188BFF3BA
:10316C006F8F03B0BDE8F0834FF0FF384FF0FF399D
:10317C00C3E90289D3E900101D604FF48033C4F811
:10318C004833C4F84051D4F8403182F31188BFF36E
:10319C006F8F0029E5D0009032463B462846884781
:1031AC00DFE700BF001001404C0E0020440E002051
:1031BC00B800002030B5431C124C85B005D08442B9
:1031CC00A8BF0446012CB8BF0124FFF787FE0E4BA5
:1031DC000C4DD3E90013401AB0F5000F10D2221891
:1031EC00AA4228BF2A4652184FF000000749009106
:1031FC00CDE9010043F10003FFF792FE05B030BDAD
:10320C002A46F0E7FFFF7F00C8000020452E000093
:10321C0008B5FFF763FE024B1B68C01A08BD00BF60
:10322C00C800002010B5084C012363601120FEF784
:10323C004FFE064BC4F80833C4F84833044B4FF424
:10324C000032C3F8802110BD0010014003000F00B4
:10325C0000E100E030B5816885B0103921F0070439
:10326C00054602F04BFA10220146684602F0D5FAE8
:10327C0007491022684602F0C5FA10236A46214617
:10328C00284602F00BFA003818BF012005B030BDFB
:10329C00B076000030B50D46816887B0102302AAC5
:1032AC001039044602F0E5F9002802DA012007B0D3
:1032BC0030BD102202A9204602F00BFD00283AD1A5
:1032CC001E49102202A802F08DFA00280CBF01231F
:1032DC0002232B70204602F0E8FC012301460DF17D
:1032EC000702204602F0C5F90028DFDB9DF8073005
:1032FC0003F00F021B096A702B7101220DF10701FB
:10330C00204602F0E6FC10B96B78042B03D901239C
:10331C006B7000232B71A268183A22F00702083A4E
:10332C00A91C204602F0E8FC0028BFD1E91C20466D
:10333C0002F03BFDBBE70323CBE700BFB0760000F8
:10334C007FB5264D4400694655F8240002F033FD44
:10335C00002835D1013402A955F8240002F02BFDC8
:10336C0001282BD103238DF808308DF80B309DF8F4
:10337C0000509DF808601A4A00241078294602F083
:10338C009AFC18B35078314602F095FCF0B1937862
:10339C00042B03D09DF80310994217D1D378042B3A
:1033AC0003D09DF80B10994210D11379042B09D13D
:1033BC005079831E022B03D804B070BD0028D6D0E0
:1033CC00FF20F9E79DF802109942F1D00134032C4B
:1033DC0002F10602D1D10120EEE700BF74750000A6
:1033EC002C7C0000044B1B68584043085B42404255
:1033FC001843C017704700BF500E00208842F0B52C
:10340C0004D0094F04380025AA4200D1F0BD3E6813
:10341C0050F8044F5E4024EA060451F825601E4023
:10342C00344304600135EFE7500E0020044B1B6859
:10343C00584043085B4240421843C017704700BFD6
:10344C00500E0020F8B50E46C9880546144602F009
:10345C00A1FF0746D0B92046FFF7E8FF104B1A68CA
:10346C00B5F90430424023EA0203B6F904200240C5
:10347C001343AB8004460346F28831682868FFF793
:10348C00BDFFF388E443EA88934201D33846F8BD84
:10349C00296851F82320224041F823200133F2E718
:1034AC00500E00202DE9F047DFF83CA00746884677
:1034BC00164699460024DAF80050DAF800305D40E0
:1034CC0085EA090585EA0400FFF7B0FFC243D2B2D2
:1034DC0008EBC4013846FFF7B5FF10B90134A6421A
:1034EC00E9D1BDE8F08700BF500E00202DE9F04F68
:1034FC0099B083460F46184600211646039303F0F5
:10350C00ACF8002800F08981784B14930024012535
:10351C0015AB039913933046CDE90B45CDE90D4519
:10352C00CDE90F45CDE9114503F020F8A04228DA8A
:10353C00BBF1000F05D1E7B90024204619B0BDE856
:10354C00F08F2146584602F099FF04460028F2D02D
:10355C000BA802F011FF0DA802F00EFF0FA802F04D
:10356C000BFF11A802F008FF0C2115A800F02CFB92
:10357C00E3E73146384602F04CFF04460028E7D119
:10358C00DAE731460BA802F044FF04460028DFD1ED
:10359C0003990DA802F03DFF04460028D8D1F1880C
:1035AC00ADF8385002310FA8ADF8305002F0F2FEF1
:1035BC0004460028CCD101460FA802F05FFF044658
:1035CC000028C5D1F18811A8023102F0E3FE0446AF
:1035DC000028BDD10DA802F07DFF00F01F001F28B0
:1035EC0073D0C0F11F0319460BA8019302F098FF8A
:1035FC0004460028ACD101990DA802F091FF0446B5
:10360C000028A5D1BDF83250BDF83A80A5EB080AC8
:10361C004FEA4A1949460DA802F082FF04460028D9
:10362C0096D14FEA8A0A0DA90BA802F0CEFF00280A
:10363C004DDA49460DA802F090FF0446002887D1C8
:10364C0008F1FF3305939B0005F1FF3A069305F152
:10365C00804508F18043023B013D9B00A5EB08052A
:10366C000893AB000293059B9A4541D8BBF1000F20
:10367C000DD00FA9584602F0CCFE002840F0C980AE
:10368C00039AB388928813FB02F3ABF80430002F33
:10369C003FF45EAF01990BA802F05FFF002840F0E9
:1036AC00B880B388ADF830300BA9384602F0B1FEC3
:1036BC000146002840F0AF80384602F0CEFF0028CB
:1036CC007FF446AF0123BB8042E701949AE70F9A3F
:1036DC0052F80A300BA9013342F80A3008460DAAF9
:1036EC0003F0A1F8044600289DD031E70100030047
:1036FC000D9B069A04931344DDF82C900793049BBE
:10370C0059F82A109A580F9D4FEA8A08A8F1040319
:10371C000993029B91421D4476D2A8F10400002328
:10372C0059F80000FCF7D4FC002914BF4FF0FF330C
:10373C000346BAF1010F2B6016BF09EB08030023F7
:10374C0053F8083C1593A8F1040359F80330169369
:10375C0059F8083017932B68DDF8108001332B6073
:10376C00089B98442B68013B2B60002111A802F0A8
:10377C0085FE00284DD1059B002B48D0D8F80020A1
:10378C00119B1A60079A12685A6011A92A68084698
:10379C0003F04DF800283CD113A911A802F015FF35
:1037AC000028DFDC2A680DA911A803F040F880BBC3
:1037BC00029B4FEAC308414611A802F0B1FE40BB80
:1037CC000BA9084611AA03F02EF8014618BB0BA84A
:1037DC0002F043FF002812DA0DA911A802F019FE1D
:1037EC00B8B9414611A802F09BFE90B90BA911AAD9
:1037FC00084603F015F860B92B68013B2B60029B5F
:10380C000AF1FF3A043B2DE74FF0FF3391E7059A9D
:10381C00B6E704469CE60C469AE66FF00B048CE681
:10382C002DE9F84F9246194A1568454006460F4651
:10383C00ED43002B14BF9946894600240A9B04F1E2
:10384C000408434504D20A9B9C4214D3BDE8F88F6C
:10385C000AEB040003F04EFA00EA060B09EB040035
:10386C0003F048FA00EA050141EA0B01381903F0AC
:10387C004CFA4446E2E71AF8043019F804203340B5
:10388C002A4013433B550134DDE700BF500E0020A6
:10389C00082804D00928034818BF002070470248A4
:1038AC00704700BF3E7C0000417C000001680E4A5E
:1038BC009142034615D1C169A2F11022A2F1EF1277
:1038CC0091420ED18268012A0BD8C26812B10169EB
:1038DC008A4206D0586928B19B691B1A5842584134
:1038EC0070470120704700BF55AA00FF70B50D4B03
:1038FC009E68A6B13046FFF7D9FF044678B9F36845
:10390C006BB935690DB9204670BD2846FFF7CEFF5F
:10391C0028B9EB68B34202D12E462D69F2E7012497
:10392C00F1E700BF540E00202DE9F8433F4F3C68EF
:10393C00D4B1BC68C4B100284AD0002948D001FBDE
:10394C0000F5B5FBF0F0884242D1281D40D8A907FC
:10395C000DD025F003060436FC6803E06368B3421F
:10396C0038D2A469002CF9D12046BDE8F8832E4644
:10397C00F2E7FB6041E006F120016318203A5A603F
:10398C000022C3E902242A4822691A61605029499D
:10399C00D96102B1D36062695A61A1699961AAB116
:1039AC0093619A6902B153614FF00109C4E901694D
:1039BC0023610023C4E905333B69DB072ED5FFF7F0
:1039CC0095FF58B31C4B48461B6826E0FB60E8E7A4
:1039DC000024C9E7A3681BB1174B01201B6898474B
:1039EC006268921B232A04F12008C4D80123A36027
:1039FC00D4E90523002ABCD09361A3690BB1626999
:103A0C005A610023C4E905333B69DA0706D5FFF791
:103A1C006DFF18B1084B1B68012098472A460021FE
:103A2C004046444601F0F9FE9EE700BF540E0020CC
:103A3C0055AA00FF669911EE3400002070B50546BA
:103A4C00002800F08880444E3368002B00F08380FF
:103A5C00B268002A7FD0834203D87268134498421C
:103A6C0003D33E4B01201B689847A5F12004204648
:103A7C00FFF71CFF18B1394B01201B68984755F80C
:103A8C00183C012B03D0354B01201B6898470023B1
:103A9C0045F8183C55F8143C3BB39A682ABB55F8CA
:103AAC001C2C02F120015A680A445A6055E905326F
:103ABC001A6155F8145C2B6903B1DD6020220021DA
:103ACC00204601F0AAFE286910B18368002B2ED085
:103ADC0033699B073FD5FFF709FF00283BD01F4BED
:103AEC00BDE870401B680120184755F8100C0028E1
:103AFC002AD0836843BB42686368134420336360F5
:103B0C0003692361D4E905239AB9CBB9436963618D
:103B1C008269A261B3B19C61A36903B15C61236941
:103B2C0003B1DC602022002101F077FED0E72C46A7
:103B3C00E1E79361A369002BE8D062695A61E5E77C
:103B4C00F360F7E7F460E7E7F36845F8083C03B186
:103B5C005C61F460BCE770BD540E002034000020A2
:103B6C0038B514220C4605460021134801F055FEC9
:103B7C001249134800F040F8232C1CD915F003030C
:103B8C001FBF043CE418C3F10403ED1822460021C6
:103B9C00284601F042FE084B0A499D60C3E90054D7
:103BAC00203C6C609A6811609A68DA60A1F110216F
:103BBC00A1F1EF11D16138BD540E0020493A00003B
:103BCC003539000055AA00FF10B50A46044619B154
:103BDC00024B00211B68984710BD00BF300000202D
:103BEC00014B1B68184700BF3C000020014B1B68B1
:103BFC00184700BF38000020024B1860024B002011
:103C0C00196070473C00002038000020F8B500F126
:103C1C0008064768044630460D4602F05FFC8742B2
:103C2C004BD16368B3F5807F47D80021304602F052
:103C3C0014FD002841DD0021304602F03BFCE0B3CE
:103C4C0045B9294604F1100002F007FD002834DDC7
:103C5C000020F8BD04F120050021284602F0FDFCEF
:103C6C0000282ADD0021284602F024FC28B304F1A8
:103C7C0028050021284602F0F0FC00281DDD00215B
:103C8C00284602F017FCC0B1002104F1100002F02C
:103C9C00E4FC002811DD002104F1300002F0DDFC11
:103CAC0000280ADD002104F1380002F0D6FC0028BF
:103CBC0003DD002104F14000C6E70148C9E700BF5D
:103CCC0080BFFFFF012938B50546144601D00748CF
:103CDC0038BD22B90123C5E91C340020F8E7104691
:103CEC00FFF7D6FD0028F5D1F1E700BF00BFFFFFBD
:103CFC0070B500210446FFF789FF054610B10E4D43
:103D0C00284670BD04F10806304602F0E3FB7F281C
:103D1C00F5D910342946204602F0CCFB0028EED011
:103D2C00204602F0D7FB0128E9D93146204602F0A3
:103D3C004CFC0028E4DBE2E700BEFFFFF0B50C46CC
:103D4C0085B0002105461646FFF760FF002839D1E3
:103D5C0002A802F00CFB21466A6802A802F0C4FB20
:103D6C00044618B102A802F007FB0CE005F10804A8
:103D7C00214602A802F029FC002807DB02A802F069
:103D8C00FBFA6FF00304A4F5854418E005F1480331
:103D9C0002A96F68009305F110022346084602F051
:103DAC00A9FD04460028DDD13A46314602A802F0AE
:103DBC00B1FB044602A802F0DFFA002CE3D1204646
:103DCC0005B0F0BD004CFAE780BFFFFF01292DE9DB
:103DDC00F041034641D8224A224F2348234E244D1A
:103DEC00244C9966002918BF9046234A18BF964662
:103DFC0002F1794202F5740202F5016218BF944691
:103E0C001E4A18BF17461E4A18BF164602F1D14269
:103E1C0008BF804602F5C0121A4802F51E620CBF9C
:103E2C00864615461848194A0CBF8446144618484D
:103E3C00A2F11162A2F50C22A2F28E2218BF024648
:103E4C000020C3E91000C3E9128EC3E914C7C3E90B
:103E5C001665C3E91842BDE8F0816FF07300FAE70C
:103E6C00D89E05C13AF54FA567E6096A7F520E51F7
:103E7C008C68059BABD9831F07D57C3639590EF757
:103E8C00310BC0FF85AE67BB72F36E3CA78FF96434
:103E9C00A44FFABE2DE9F04FCDB000F1640300F150
:103EAC0044070DF58679009301914A463B4653F839
:103EBC00041F42F8041F00999942F8D102ADDFF8B3
:103ECC0000A14FF000082C46B8F10F0F61D8019BF0
:103EDC0003EB880002F00EFF02F0B7FF0146A96069
:103EEC00D4E94763D4F818015AF804CB73404FEA6D
:103EFC00F022D4F8206182EAB012034082EA7062A8
:103F0C0073401344D4F82421D4F81061134463444F
:103F1C000B44D4E9421E4FEA713C41EA0E02324096
:103F2C008CEAB10C01EA0E0B42EA0B028CEAB15C92
:103F3C009444D4F81421D4F82061C4F824611A44B0
:103F4C00D4F81C61C4F8182108F10108D4F8102128
:103F5C00C4F804C06344B8F1400FC4E94706C4E98F
:103F6C0044E2C4E94231236005F10405ACD157F8B1
:103F7C00043F59F8042F13443B60009BBB42F6D11D
:103F8C0002A84FF49471FFF71FFE00204DB0BDE85E
:103F9C00F08F2B6855F8382C55F8340C4FEAF34158
:103FAC0081EA734181EA932155F8143C1344194476
:103FBC004FEAB04383EAF01383EAD00319448EE747
:103FCC007C7500004FF0704393F8E02F062A09D15E
:103FDC00D3F8E83FC3F30313033B042B02D8024A84
:103FEC00D05C704700207047537C0000024AD2F826
:103FFC000034002BFBD0704700E0014010B502F0FC
:10400C00F2FF40B14FF080538E4AD3F82433C3F300
:10401C000423C2F84035FFF7D5FF10B18A4B8B4A09
:10402C005A6702F0E0FF48B14FF080534FF08042E6
:10403C00D3F84432C3F34233C2F83C35FFF7C2FF26
:10404C0030B1834AD2F8FC3023F08073C2F8FC30D4
:10405C0002F0C9FF40B14FF080430022C3F80C219D
:10406C00C3F81021C3F83825FFF7ACFF20B14FF08F
:10407C0080430322C3F8A025FFF7A4FF60B1754B62
:10408C000522C3F810260122C3F888260022C3F8A3
:10409C0018263F22C3F814264FF08053D3F8302152
:1040AC00511C09BF4FF07043D3F8343193F8E02F13
:1040BC00D3F8E83F08BFC3F30313062A4DD1033BE3
:1040CC00042B03D8644AD35C002B46D04FF08052AB
:1040DC00624BD2F80414C3F82015D2F80814C3F8B4
:1040EC002415D2F80C14C3F82815D2F81014C3F800
:1040FC002C15D2F81414C3F83015D2F81814C3F8D0
:10410C003415D2F81C14C3F84015D2F82014C3F897
:10411C004415D2F82414C3F84815D2F82814C3F85F
:10412C004C15D2F82C14C3F85015D2F83014C3F82F
:10413C005415D2F83414C3F86015D2F83814C3F8F7
:10414C006415D2F83C14C3F86815D2F84014C3F8BF
:10415C006C15D2F84424C3F8702502F044FF48B122
:10416C004FF080534FF08042D3F8583203F04F0396
:10417C00C2F8E43E02F037FF48B14FF08043D3F869
:10418C000024D20744BF6FF00102C3F800244FF0A3
:10419C008053D3F83021062A26D1D3F83431033B8F
:1041AC00042B02D82E4AD35C63B12E4AD2F83C378A
:1041BC0043F48063C2F83C374FF08053D3F830316E
:1041CC00062B11D14FF08053D3F83431033B042B21
:1041DC0002D8254AD35C3BB14FF01023D3F8082208
:1041EC004FF08043C3F858254FF01023D3F800222A
:1041FC00002A03DBD3F80432002B22DA1B490123FB
:10420C004FF01020C1F804351524FFF7EFFEC0F86D
:10421C000042FFF7EBFEC0F80442FFF7E7FE002375
:10422C00C1F80435FFF7E2FEBFF34F8F0849104B7E
:10423C00CA6802F4E0621343CB60BFF34F8F00BF38
:10424C00FDE710BD0030014000C007400DF0ADBAD5
:10425C0000ED00E0005000404E7C000000C000402B
:10426C00497C000000100040447C000000E001404C
:10427C000400FA0530B50468CCB1BFF35B8FB4FA17
:10428C0084F3C3F11F03DBB201229A4024EA020239
:10429C0050E8005FA54204D140E8002CBCF1000FAF
:1042AC00F6D1BFF35B8FE6D102480B7030BD0248EC
:1042BC00FCE700BF0000AD0B0200AD0B10B50368AE
:1042CC00CB40DB0714D401238B400268BFF35B8F18
:1042DC0043EA020150E8004F944204D140E8001C2C
:1042EC00BCF1000FF6D1BFF35B8FEED1014810BDCE
:1042FC000148FCE70000AD0B0400AD0B014BC3F80B
:10430C000405704700F00140F7B5044618B10128C8
:10431C0023D003B0F0BD4FF080430222C3F8082332
:10432C000122DA60C3F80401D3F8043106460123F4
:10433C008DF8073042F210754FF08047D4B1012C44
:10434C00E7D1D7F80C3403F48033AEBB83B3012030
:10435C0002F058FE013DF4D12AE04FF080430022D8
:10436C00C3F808035860C3F80021D3F800310DF1ED
:10437C000706DCE7D7F8183403F480333EB9002B7A
:10438C00C7D0012002F03EFE013DF3D1C1E7D7F8C2
:10439C00182402F003023260002BBAD09DF80700FB
:1043AC00012803D102F02EFE013DC7D1012CB0D162
:1043BC00054B00225A71ACE7D7F80C2402F001022D
:1043CC003270002BEAD1F3E7680E0020044B1A7907
:1043DC0022B9012218609A8002487047024870473F
:1043EC00680E00200000AD0B0C00AD0B08B5074BA0
:1043FC001B682BB10020FDF77FFD08B9FDF75AFDB6
:10440C004FF080430022C3F8182508BD680E002029
:10441C0038B5B0B1012855D14FF080420023C2F815
:10442C000031D2F80021304A03F180430121196098
:10443C002E4B1B68002B50D04FF08043C3F8040365
:10444C0040E04FF08043D3F81814D3F81824C80375
:10445C002AD502F00303012B04D013B10020FFF77F
:10446C0053FF00234FF08042C2F818350023C2F8E6
:10447C000431D2F804311E4AD2F8FC0040F08073AB
:10448C00C2F8FC301B4B1C6844F0010119605D68DC
:10449C005968491BB1F50A5FFAD31C60C2F8FC00DD
:1044AC000823154A0220BFE7D3F81424D107D8D526
:1044BC00D3F81C249207D1D40C4A12681AB10222E8
:1044CC00C3F8042338BDD3F80421002AFBD0002202
:1044DC00C3F80421D3F80431F4E71368002BFCD0A3
:1044EC00002313601368EDE700010040680E002004
:1044FC0000ED00E0001000E00401004010B54FF0AA
:10450C008043D3F800216AB10022C3F80021D3F80C
:10451C0000210122C3F80823114B587910B95A71A4
:10452C001B6898474FF08043D3F8042172B10022E6
:10453C00C3F80421D3F80421D3F81824D3F8182491
:10454C00920704D10122C3F818259A6010BD0222EB
:10455C00C3F80823024BBDE810401B680120184724
:10456C00680E002070B500F108030C4C34F81330C1
:10457C00DA0505460E4607D5C3F3432304EBC30205
:10458C0054F8333052689847A3682BB1E26831462F
:10459C002846BDE87040184770BD00BF40000020A1
:1045AC0010B4C0B2114A083032F81030D9051BD5FE
:1045BC00C3F3432123F4F85322F8103002F10E0414
:1045CC00002034F8023F13F4807F03D0C3F343235D
:1045DC00994209D001302028F3D1002342F8313020
:1045EC00034810BCFFF76ABE10BC704740000020A7
:1045FC0098000020F0B50546002004460126074629
:10460C008C420BD1114BD3F87C2132B10022C3F870
:10461C007C21D3F87C3140F00040F0BDE3B29B002C
:10462C0003F580729B0806FA03F31D420BD002F1CE
:10463C00804202F5C042D2F800C0BCF1000F02D09B
:10464C001760126818430134DAE700BF00600040BD
:10465C00CBB20246083308460C4931F813309906A0
:10466C0011D599070FD410685B0B01219940C0F844
:10467C000813126802EB8303D3F8102522F003020F
:10468C00C3F810257047002102F01DBD400000202A
:10469C00F7B5CDB2174E0835074636F81530DB079F
:1046AC000C4624D5FFF7D4FF36F815309A0606D5FC
:1046BC005B0B3A6803F5A273002142F823102046E5
:1046CC00FFF76EFF002301A826F81530019402F0C5
:1046DC00A7FC019B00EB8300074BD0F8002713408D
:1046EC0043F00203C0F80037044803B0F0BD04489F
:1046FC00FBE700BF40000020F0F8FCFF0000AD0B12
:10470C000400AD0B2DE9FF41136807460C46154616
:10471C00FBB1CEB2DFF83C81083638F8162002F037
:10472C002202222A22D00022CDE900228DF80E206E
:10473C008DF80F200DF10E010DF10F02204602F045
:10474C0079FC38F8163023F0020343F0010328F803
:10475C0016306B684BB393F800C05A683D4EE3B209
:10476C00083336F81310880702D5B2B13A481FE067
:10477C0021F02001C904C90C26F813106AB1BCF150
:10478C00030FF3D86A68386852681278BCF1000FCE
:10479C0011D102F5A27240F822C036F8132022F093
:1047AC001C0242EA8C0226F81320AB6843BB2B4850
:1047BC0004B0BDE8F08100EB820041EA4231D0F850
:1047CC0010E52EF0030EC0F810E53F6807EB8207EA
:1047DC0041F02001D7F8100526F8131020F44730CB
:1047EC0020F44070C7F810052002D7F810E500F44B
:1047FC00F85040EA0C4040EA0E00C7F81005CCE730
:10480C00D3E900672046FFF7CBFE002ECFD0114D29
:10481C00D5E90023964203D19F4201D1002209E041
:10482C000F480DF10F01FFF725FD0C4B9842BFD13E
:10483C009DF80F2045F83260E4B205EBC203083452
:10484C005F6035F8143043EA422343F4807325F853
:10485C001430ACE7400000200400AD0B0000AD0BA1
:10486C00980000202DE9FF4107460C461E4612B366
:10487C00CDB2DFF8D080083538F81530980701D460
:10488C00990621D413F01C0F02D05378012B1BD0A6
:10489C0001238DF80F300023CDE900230DF10F011A
:1048AC00931C2046013202F0C5FB38F8153043F05A
:1048BC00030328F81530002E42D0E1B2214D083107
:1048CC0035F81120930703D41F4804B0BDE8F081DC
:1048DC0096F800E0D7F800C022F020020EF5A27086
:1048EC00D2040023D20C4CF8203025F8112096F875
:1048FC0001C0BCF1000F23D03868B67800EB8E00F5
:10490C004FEA0C4CD0F8103523F4981323F4F853D9
:10491C00C0F81035230203F4F8530CF4403C360570
:10492C00D0F8107543EA0C0306F4801642EA4E32B6
:10493C00334342F020023B4325F81120C0F81035D8
:10494C000248C2E7400000200400AD0B0000AD0B94
:10495C00014BC3E90212704740000020C9B2083174
:10496C00044B33F81130990643BF5B0B02481370AC
:10497C0002487047400000200000AD0B0400AD0B56
:10498C0070B5164D95F8604006462CBB214640226A
:10499C0005F1100000F041FF30682E6D21468E426B
:1049AC000ED10023C0F87C31D0F87C3140F30730B5
:1049BC00FDF780FA01230A4885F86030AB6570BDBD
:1049CC00CBB29B0003F580727C2B08BF845001F1A5
:1049DC00010108BF8358E2E70248F0E740000020DD
:1049EC000000AD0B0C00AD0B034B93F860000038CE
:1049FC0018BF0120704700BF400000200148FFF79E
:104A0C005DBC00BF940000200148FFF733BC00BF21
:104A1C009400002073B503680C46D3F804130029E6
:104A2C00A4BF4FF00041C3F80413E3B21D4908338F
:104A3C0031F8133099061AD513F0020617D15B0B17
:104A4C009C00056804F580716E506958016821441A
:104A5C00D1F8104544F00104C1F810452AB10168A1
:104A6C00012202FA03F3C1F8043302B070BDC3F3A0
:104A7C008203042B12D0052B12D001A8019402F052
:104A8C00CFFA019AD0F81035D34003F00103991CEA
:104A9C00204602B0BDE8704002F015BB0321F7E7D9
:104AAC000221F5E7400000202DE9F347544B554F08
:104ABC00D3F80403396DC0B240F00040FFF79AFD03
:104ACC00051E18DA0023F96D0093684602F00AFB04
:104ADC004FF0010897F85C30DA075AD4396D4FF073
:104AEC000040FFF787FDF96D684602F0FBFA0028DD
:104AFC00F0D125F000450124002D69D102B0BDE8AC
:104B0C00F08794FAA4F4B4FA84F4E00804F10803EE
:104B1C0004F0070237F813901DF80030019408FADE
:104B2C0002F223EA02030DF8003001A802F078FA31
:104B3C00019B03F5E0734FEA990150F82360C9F328
:104B4C00820A4B07D146C6F3014626D5204651466C
:104B5C00FFF708FD01A8019402F062FA019B03F52E
:104B6C00E073F6B250F82330C3F301439E4207D1F1
:104B7C000021204602F0A7FA3146204602F0A3FAA3
:104B8C0001A8019402F04CFA019B08FA03F3C0F857
:104B9C002035009C002CB4D1A0E7022E0CD10321AF
:104BAC00204602F090FA0AF00503012BE8D14946A1
:104BBC002046FFF7D7FCE3E70221204602F083FAF8
:104BCC00BAF1030FF3D0032EDAD1BAF1020FEDE7ED
:104BDC0095FAA5F3B3FA83F304FA03F29B0003F1FD
:104BEC00804303F5C04325EA0205D3F81005D3F83A
:104BFC001015C0F30420C1F30141FFF7B3FC7BE7B0
:104C0C000060004040000020044AD2F80034DB076A
:104C1C00FBD50160BFF35F8F704700BF00E0014020
:104C2C004FF080531A69B0FBF2F302FB130373B914
:104C3C00084B0222C3F80425C3F80805D3F8002456
:104C4C00D207FBD500220448C3F80425704703485B
:104C5C00704700BF00E001400000AD0B0A00AD0B37
:104C6C0010B5054C0123C4F80435FFF7CDFF002324
:104C7C00C4F8043510BD00BF00E0014001460148F6
:104C8C00FFF7F8BAA400002010B5144CA82200219C
:104C9C00204600F0C2FD03232361114A6361114BCE
:104CAC00A261E3614FF4806323620023A362636219
:104CBC00E36222660C4A62661022A2662367E366F0
:104CCC006367BFF35F8F094A12F8011DE15401338A
:104CDC00102BF9D1BFF35F8F10BD00BF700E0020F9
:104CEC00587C00003028002020280020717C000017
:104CFC0038B5094B53F82040013053F82050A542E9
:104D0C0000D838BD636823B1204602F03CFA083461
:104D1C00F5E723689847FAE77C76000008B5094B5D
:104D2C00012203201A70FFF7E3FFFCF7DFFE0420DB
:104D3C00FFF7DEFFFBF736FB034A137B23F001037F
:104D4C00137308BD302C0020D800002008B5034890
:104D5C00034A0021121A02F02EFA08BDB8000020F6
:104D6C00342C002008B50020FFF7C2FF184B83F34A
:104D7C000888184C636943F4007363610025E023D1
:104D8C0084F82230E57725766576A57684F8205070
:104D9C00636A43F4E023636284F82350FCF7FAFF60
:104DAC00FDF71CF94FF0FF33A362E362FDF7B0F996
:104DBC00FDF738F902F0C1F90120FFF799FF022045
:104DCC00FFF796FF04482B462A462946FDF7ECF8D8
:104DDC008034002000ED00E0294D000008B50648A5
:104DEC00064A0749121A02F0E8F9BDE80840054ADC
:104DFC000549064802F0E1B900000020B800002087
:104E0C00747C000000000000747C00000000002096
:104E1C00034B1B680BB9FEF7FBB90020704700BFB2
:104E2C00180F002030B570B10B4B5B6898420AD05C
:104E3C00036843B1D3E90421D0E90445121941EBCD
:104E4C000501C3E90421D0E9003213605A60002344
:104E5C00C0E9003330BD00BFA800002010B50E4BD8
:104E6C001C689C4204D1FFF7D3FF6FF0004010BDCB
:104E7C00FFF7CEFF002CF8D0D4E904321B1A62EBFA
:104E8C00E072B3F1004F72F10001EEDA002AACBF10
:104E9C0018460020EBE700BFA80000202DE9F84FD2
:104EAC00EFF3118C202383F31288BFF36F8FDFF89D
:104EBC00ACA0DFF8AC902B4FC9F80000DAF800007A
:104ECC000024504508BF00200025D7E90021D9F85F
:104EDC000030E04678B3D0E9046C4FEAE37EB3428D
:104EEC007EEB0C0B05DAF61A6CEB0E04C0E90464CD
:104EFC0021E0B21841EBE671C0E90445C7E9002195
:104F0C00FFF790FF88F31188BFF36F8F8368984782
:104F1C00EFF31188202383F31288BFF36F8FD9F836
:104F2C000030DAF800009B1B5045C446C9F800302D
:104F3C00CBD1D7E900219A1841EBE3730024C7E9E0
:104F4C000023C9F80040FFF789FF2146FEF732F92C
:104F5C0088F31188BFF36F8FBDE8F88FA80000208D
:104F6C00180F00205801002070470020704730B502
:104F7C0083688B4285B0044615460ED96368C068B9
:104F8C00194401AA00F048FD28B96268019B9B1ADC
:104F9C002B60029B6B6005B030BD6FF02100FAE70F
:104FAC002DE9F7430E4617469946044628B94FF0AB
:104FBC00FF38404603B0BDE8F0830029F7D0002A43
:104FCC00F5D0CB680D891D4404230DEB0302294653
:104FDC00384600F04EFB80460028E8D1BDF804109E
:104FEC00738946F60812914225D1BDF806109942F4
:104FFC00DDD104230DEB03022944384600F039FBC4
:10500C000028D4D1BDF8042046F607139A42CED11D
:10501C00C4E900679DF82830A4F80890A37273893E
:10502C00BDF806202B44E360738913442B440435EC
:10503C0063612561BDE7002BE4D0B8E72DE9F341AE
:10504C000E4617461D46044620B94FF0FF3002B0FD
:10505C00BDE8F0810368002BF7D04368002BF4D037
:10506C004FF6FF78D4E904239A4216D223685B8961
:10507C0023B1E368934204BF043323610423216901
:10508C0060680DEB030200F0F4FA0028DDD1A37A7E
:10509C002BB1D4E903329A4201D30120D7E72389FB
:1050AC00BDF80610434501F1040203D0BDF804C05D
:1050BC009C450BD115B1BDF804302B80236904330A
:1050CC0033603980236913442361C0E72369134497
:1050DC002361C7E748B103683BB143682BB1C06893
:1050EC00884294BF0020012070474FF0FF3070477A
:1050FC0000F078BB4FF4C07358433030704710B594
:10510C00044600F0F4FAA3684FF4C072303B02FB83
:10511C00103010BD70B50D46044600F0C6FD2A4691
:10512C00A0F1080104232046BDE8704000F0A1BAAC
:10513C0013B50446019100F0B8FD0423A0F1080159
:10514C000DEB0302204600F0F3FD02B010BD70B56C
:10515C0013460E461546002102460446FBF79AFEFE
:10516C0050B92B4604F12C0201212046FBF792FE8C
:10517C0010B1002E08BF002070BD73B5044600208E
:10518C000D461646FBF77CF96946C0B2FCF756FC97
:10519C0030BB2C2303FB05440098E36825891D4490
:1051AC0004230DEB0302294600F063FAC0B9BDF8E5
:1051BC0004206489009846F608139A4215D1BDF86C
:1051CC0006309C420CD104230DEB0302611900F054
:1051DC0050FA28B9BDF8042046F607139A4207D0B6
:1051EC00009800F045FA02B070BD002CF2D0F7E741
:1051FC00BDF80610214429443160F1E737B5044667
:10520C00426A802501A902200195FCF73FFC58B9A0
:10521C00019B226DA36201A905200195FCF736FCC8
:10522C00054628B1092500E00125284603B030BD0C
:10523C00019B206A636500F05AFAE065F5E70123EB
:10524C00036003F1012343600023C0E9023370477C
:10525C004379012B07D10368012B04D10079431E3C
:10526C00584258417047002070477FB506460D469E
:10527C00022001A9FCF7E2FB38BB0198FFF73FFFC6
:10528C00F16D0446284600F0D0F80444019800F073
:10529C002EFA0646019800F031FA082201460DEB71
:1052AC00020000F0BAFA2B798DF8083021460198EB
:1052BC00334602AA00F0F2F9041E019818BF01242B
:1052CC0000F0D6F9204604B070BD0124FAE700F0D6
:1052DC00FAB92DE9F8430E46002107460846FBF7BC
:1052EC00CFF8012104460020FBF7CAF833789C4222
:1052FC0021D0984221D101252C2303FB0575F86D93
:10530C00AC6AFFF7F7FE013C07464FF000086B6AEA
:10531C0003EBC40253F83410D2F804901B684A46CD
:10532C00C91A3046C844FFF7D2FFB84504F1FF3420
:10533C00EDD3BDE8F8830025DEE70120F9E737B5AA
:10534C0015460C460520694600F035FDE979012922
:10535C0003D00022204600F042FD9DF80330012BC3
:10536C0002D1204600F01AFDA9682046FFF7E0FEA6
:10537C002046FDF76FFF002003B030BD73B50D461E
:10538C00064600F065F80446E86050B302282DD1BB
:10539C0001A9FCF753FB58BB01982A463146FBF791
:1053AC00DFFD0446D0B9019800F07FFC01230146D3
:1053BC000DF10302019800F05CF90446A0B90198C4
:1053CC0001220DF1030100F084FC10B101238DF8D2
:1053DC0003309DF8033003F00F03EB71019800F0DC
:1053EC0047F9204602B070BD0124F7E70724F8E71F
:1053FC000124F6E738B5436A0446C06D5D68FFF7D3
:10540C0079FE0246A06A002301382B449A4201D946
:10541C000138FAE738BD436A00205A680346134442
:10542C008B4200F10100FAD3704710B54379027931
:10543C00012B14BFCB01002302F1FF3201FB02331D
:10544C00026814BF4C000C46013A04FB023010BD3C
:10545C001FB50220694600F0AEFC02A9052000F041
:10546C00AAFC9DF80030012B0CD19DF80230032BC7
:10547C0008D19DF80800013818BF0120400005B084
:10548C005DF804FB0020FAE7002070470FB407B565
:10549C0004A951F8040B0191FBF786FF03B05DF8EA
:1054AC0004EB04B07047038B13F0070305D10368BA
:1054BC00002B0CBF002003207047022B05D1408B22
:1054CC00B0FA80F0400980007047012B05D10368C9
:1054DC00002B0CBF0020052070470020704710B532
:1054EC000C4600B111B96FF0150010BD081D00F08D
:1054FC0093F80028F9D1A368032BF6D9F3E72DE92B
:10550C00F0410D4607461946281D90461E4600F0F0
:10551C0094F8044638B13346424629463846A446E8
:10552C00BDE8F0416047BDE8F08110B4EFF31182A3
:10553C00202484F31288BFF36F8F416110BC0121CA
:10554C00FCF768B938B50C46054658B151B10B6833
:10555C0043B14B6833B11C22002100F05EF92C6181
:10556C00002038BD6FF01500FBE770B505460E4600
:10557C00FFF7B5FF041E14DBEFF31182202383F336
:10558C001288BFF36F8F6B8B2C8B4FF6FF718B4296
:10559C0004F0070407D182F31188BFF36F8F6FF00B
:1055AC000A04204670BD022C0CD101336B8382F3AC
:1055BC001188BFF36F8F0023224631462846FFF730
:1055CC009EFFEEE7062C14D8DFE804F00413131347
:1055DC00041A0400002333606B683BB9C5E900660C
:1055EC00ACB902212846FCF715F9DAE71E606E60AB
:1055FC00F6E782F31188BFF36F8F6FF00404D0E7E6
:10560C0082F31188BFF36F8F6FF08504C9E782F3C3
:10561C001188BFF36F8FC4E7034658B1426802F09C
:10562C000302012A03D0032A04D1026812B100201C
:10563C00986070476FF0150070474268816002F007
:10564C000302032A4FF0000203460CBF0068104609
:10565C005A60704770470FB407B504A951F8040B92
:10566C000191FBF7A1FE03B05DF804EB04B07047A9
:10567C007047002930B4044618460BDBA568084473
:10568C00A84207D8E0686468214484682468A4466A
:10569C0030BC60476FF0150030BC7047002930B447
:1056AC00044618460BDBA5680844A84207D8E068F6
:1056BC006468214484686468A44630BC60476FF019
:1056CC00150030BC70470029034610B410460ADBA5
:1056DC009C680844A04206D8D8685B681944836863
:1056EC0010BC9B6818476FF0150010BC704708B5CC
:1056FC00C0688368DB689847006808BD08B5C06857
:10570C008368DB689847007908BD70B54C680368FE
:10571C00A34201D2012070BD8A682244934201D376
:10572C000020F8E7D1E903254E69B54203D36FF0A9
:10573C000B038B61F4E71B1B42F835304368086997
:10574C0002EBC00253600B6901330B61E2E70128E5
:10575C0001D1EFF3058301F007BD01460068FFF7A7
:10576C00F6BF08B5FCF7D4F9BDE8084000F000B866
:10577C00704700210120FFF7EABF61B662B680F3E3
:10578C001188BFF36F8F7047EFF31180202383F3E1
:10579C001288BFF36F8F704772B6002383F31188A2
:1057AC00BFF36F8FBFF34F8F20BF80F31188BFF310
:1057BC006F8F62B67047202809D9B0F1004F08D816
:1057CC000138B0FA80F0C0F11F004000704708208B
:1057DC0070473E207047034600201A5C02B97047A0
:1057EC000130FAE710B55AB10139841810F8012BC1
:1057FC0011F8013FA04201D09A42F7D0D01A10BD47
:10580C001046FCE710B5431E0A44914200D110BD6E
:10581C0011F8014B03F8014FF7E7C9B202440346F4
:10582C00934200D1704703F8011BF9E74FF0FF30AA
:10583C0070470369C9B20C2201FB0233186C00F0EB
:10584C000700704770B5C9B20369EFF311852024C6
:10585C0084F31288BFF36F8F0C2606FB0134246C83
:10586C0014F0C00408D0A24206D085F31188BFF30F
:10587C006F8F4FF0FF3070BD71430B4401221A64DF
:10588C0085F31188BFF36F8F43680B445B689847AF
:10589C000020F0E78022FFF7D5BFF8B5069F04691A
:1058AC00C9B2EFF31186202585F31288BFF36F8FF1
:1058BC000C2569430C44256C05F0070CBCF1010F59
:1058CC000BD1276486F31188BFF36F8FC4E90E23C5
:1058DC0043685B5898470020F8BD05F0C005AF42FF
:1058EC0086F31188BFF36F8F0CBF6FF077004FF00A
:1058FC00FF30F1E713B580240094FFF7CEFF02B020
:10590C0010BD6FF08500704710B40069CBB21C2439
:10591C0003FB0400002110BC1047002001F07EBBEB
:10592C0038B505460C4601F0EFFB002D07DBA8420D
:10593C0005D9401B84428CBF0020012038BD0020BB
:10594C00FCE770B50C46154601F0E4FB294606460B
:10595C002046FFF7E5FFB8B1B4FBF6F306FB1343A3
:10596C0093B9B5FBF6F306FB13536BB9AE4201D9F1
:10597C00002070BD01F0CEFB06462046FFF750F923
:10598C00AD1B3444F9D1F3E76FF01500F1E770B5B6
:10599C000D462846194616461C46FFF7C1FF38B17E
:1059AC0024B1224629463046FFF72CFF002070BD5B
:1059BC006FF01500FBE7F7B51C461646002382680E
:1059CC002360A36013690D4601AA69469847019BA1
:1059DC005A1E01921BB96FF0150003B0F0BD009870
:1059EC00A26847682168676085B9B31AD0F800C00F
:1059FC00634528BF63461A4403FB07112160A2606C
:105A0C0002689A4206D808300090E0E76B1AB3FBA4
:105A1C00F7F3EBE70020E0E713460022FFF7CBBFDC
:105A2C002DE9F047836886B01B698846914601A929
:105A3C0002AA98470024A2462546029BAB4202D8F4
:105A4C0006B0BDE8F087019F07EBC50700267B6811
:105A5C0004933A68B2420AEB060302D801359A461F
:105A6C00EBE703940593494603A8C0470028E7D009
:105A7C00049B01361C44ECE743685B68D3F8103593
:105A8C000B600020704743685B6802EA010021EA62
:105A9C000201C3F80805C3F80C15002070474368D1
:105AAC005B680020C3F80815704743685B680020EA
:105ABC00C3F80C15704743685A68D2F8043521EACC
:105ACC0003000B40C2F80805C2F80C3500207047E3
